{
  "contractName": "Election",
  "abi": [
    {
      "anonymous": false,
      "inputs": [
        {
          "indexed": false,
          "internalType": "uint256[]",
          "name": "candidateID",
          "type": "uint256[]"
        },
        {
          "indexed": false,
          "internalType": "string[]",
          "name": "name",
          "type": "string[]"
        },
        {
          "indexed": false,
          "internalType": "string[]",
          "name": "email",
          "type": "string[]"
        },
        {
          "indexed": false,
          "internalType": "uint256[]",
          "name": "votes",
          "type": "uint256[]"
        },
        {
          "indexed": false,
          "internalType": "string[]",
          "name": "electionid",
          "type": "string[]"
        }
      ],
      "name": "getlist",
      "type": "event"
    },
    {
      "inputs": [
        {
          "internalType": "uint256",
          "name": "",
          "type": "uint256"
        }
      ],
      "name": "candidates",
      "outputs": [
        {
          "internalType": "uint256",
          "name": "candidateID",
          "type": "uint256"
        },
        {
          "internalType": "string",
          "name": "Name",
          "type": "string"
        },
        {
          "internalType": "string",
          "name": "Email",
          "type": "string"
        },
        {
          "internalType": "uint256",
          "name": "VoteCount",
          "type": "uint256"
        },
        {
          "internalType": "string",
          "name": "ElectionId",
          "type": "string"
        }
      ],
      "stateMutability": "view",
      "type": "function",
      "constant": true
    },
    {
      "inputs": [
        {
          "internalType": "uint256",
          "name": "_cid",
          "type": "uint256"
        },
        {
          "internalType": "string",
          "name": "_name",
          "type": "string"
        },
        {
          "internalType": "string",
          "name": "_mail",
          "type": "string"
        },
        {
          "internalType": "string",
          "name": "_eid",
          "type": "string"
        }
      ],
      "name": "addCandidates",
      "outputs": [],
      "stateMutability": "nonpayable",
      "type": "function"
    },
    {
      "inputs": [
        {
          "internalType": "string",
          "name": "_id",
          "type": "string"
        }
      ],
      "name": "getCandidate",
      "outputs": [
        {
          "internalType": "uint256[]",
          "name": "",
          "type": "uint256[]"
        },
        {
          "internalType": "string[]",
          "name": "",
          "type": "string[]"
        },
        {
          "internalType": "string[]",
          "name": "",
          "type": "string[]"
        },
        {
          "internalType": "uint256[]",
          "name": "",
          "type": "uint256[]"
        },
        {
          "internalType": "string[]",
          "name": "",
          "type": "string[]"
        }
      ],
      "stateMutability": "payable",
      "type": "function",
      "payable": true
    },
    {
      "inputs": [
        {
          "internalType": "uint256",
          "name": "_id",
          "type": "uint256"
        }
      ],
      "name": "vote",
      "outputs": [],
      "stateMutability": "nonpayable",
      "type": "function"
    }
  ],
  "bytecode": "0x608060405234801561001057600080fd5b5061122e806100206000396000f3fe60806040526004361061003f5760003560e01c80630121b93f146100445780633477ee2e1461006d578063a6a7fa45146100ae578063f276669d146100d7575b600080fd5b34801561005057600080fd5b5061006b60048036038101906100669190610bf8565b61010b565b005b34801561007957600080fd5b50610094600480360381019061008f9190610bf8565b6101e3565b6040516100a5959493929190610ff0565b60405180910390f35b3480156100ba57600080fd5b506100d560048036038101906100d09190610c21565b6103f1565b005b6100f160048036038101906100ec9190610bb7565b6104b7565b604051610102959493929190610f7a565b60405180910390f35b60005b6000805490508110156101df578160405160200161012c9190610f5f565b604051602081830303815290604052805190602001206000828154811061014f57fe5b9060005260206000209060050201600001546040516020016101719190610f5f565b6040516020818303038152906040528051906020012014156101d25760016000828154811061019c57fe5b90600052602060002090600502016003015401600082815481106101bc57fe5b9060005260206000209060050201600301819055505b808060010191505061010e565b5050565b600081815481106101f357600080fd5b9060005260206000209060050201600091509050806000015490806001018054600181600116156101000203166002900480601f0160208091040260200160405190810160405280929190818152602001828054600181600116156101000203166002900480156102a55780601f1061027a576101008083540402835291602001916102a5565b820191906000526020600020905b81548152906001019060200180831161028857829003601f168201915b505050505090806002018054600181600116156101000203166002900480601f0160208091040260200160405190810160405280929190818152602001828054600181600116156101000203166002900480156103435780601f1061031857610100808354040283529160200191610343565b820191906000526020600020905b81548152906001019060200180831161032657829003601f168201915b505050505090806003015490806004018054600181600116156101000203166002900480601f0160208091040260200160405190810160405280929190818152602001828054600181600116156101000203166002900480156103e75780601f106103bc576101008083540402835291602001916103e7565b820191906000526020600020905b8154815290600101906020018083116103ca57829003601f168201915b5050505050905085565b60006040518060a001604052808681526020018581526020018481526020016000815260200183815250908060018154018082558091505060019003906000526020600020906005020160009091909190915060008201518160000155602082015181600101908051906020019061046a929190610aa3565b506040820151816002019080519060200190610487929190610aa3565b506060820151816003015560808201518160040190805190602001906104ae929190610aa3565b50505050505050565b60608060608060606000805b60008054905081101561055757876040516020016104e19190610f31565b604051602081830303815290604052805190602001206000828154811061050457fe5b90600052602060002090600502016004016040516020016105259190610f48565b60405160208183030381529060405280519060200120141561054a5781806001019250505b80806001019150506104c3565b5060608167ffffffffffffffff8111801561057157600080fd5b506040519080825280602002602001820160405280156105a05781602001602082028036833780820191505090505b50905060608267ffffffffffffffff811180156105bc57600080fd5b506040519080825280602002602001820160405280156105f057816020015b60608152602001906001900390816105db5790505b50905060608367ffffffffffffffff8111801561060c57600080fd5b5060405190808252806020026020018201604052801561064057816020015b606081526020019060019003908161062b5790505b50905060608467ffffffffffffffff8111801561065c57600080fd5b5060405190808252806020026020018201604052801561068b5781602001602082028036833780820191505090505b50905060608567ffffffffffffffff811180156106a757600080fd5b506040519080825280602002602001820160405280156106db57816020015b60608152602001906001900390816106c65790505b50905060005b600080549050811015610a45578c6040516020016106ff9190610f31565b604051602081830303815290604052805190602001206000828154811061072257fe5b90600052602060002090600502016004016040516020016107439190610f48565b604051602081830303815290604052805190602001201415610a38576000818154811061076c57fe5b90600052602060002090600502016000015486828151811061078a57fe5b602002602001018181525050600081815481106107a357fe5b90600052602060002090600502016001018054600181600116156101000203166002900480601f0160208091040260200160405190810160405280929190818152602001828054600181600116156101000203166002900480156108485780601f1061081d57610100808354040283529160200191610848565b820191906000526020600020905b81548152906001019060200180831161082b57829003601f168201915b505050505085828151811061085957fe5b60200260200101819052506000818154811061087157fe5b90600052602060002090600502016002018054600181600116156101000203166002900480601f0160208091040260200160405190810160405280929190818152602001828054600181600116156101000203166002900480156109165780601f106108eb57610100808354040283529160200191610916565b820191906000526020600020905b8154815290600101906020018083116108f957829003601f168201915b505050505084828151811061092757fe5b60200260200101819052506000818154811061093f57fe5b90600052602060002090600502016003015483828151811061095d57fe5b6020026020010181815250506000818154811061097657fe5b90600052602060002090600502016004018054600181600116156101000203166002900480601f016020809104026020016040519081016040528092919081815260200182805460018160011615610100020316600290048015610a1b5780601f106109f057610100808354040283529160200191610a1b565b820191906000526020600020905b8154815290600101906020018083116109fe57829003601f168201915b5050505050828281518110610a2c57fe5b60200260200101819052505b80806001019150506106e1565b507f7206a3199716763bdaf769ce5b40aac65ea1cd6e3def9dfd9bff1fb9c9df14fb8585858585604051610a7d959493929190610f7a565b60405180910390a184848484849a509a509a509a509a5050505050505091939590929450565b828054600181600116156101000203166002900490600052602060002090601f016020900481019282610ad95760008555610b20565b82601f10610af257805160ff1916838001178555610b20565b82800160010185558215610b20579182015b82811115610b1f578251825591602001919060010190610b04565b5b509050610b2d9190610b31565b5090565b5b80821115610b4a576000816000905550600101610b32565b5090565b600082601f830112610b5f57600080fd5b8135610b72610b6d82611089565b611058565b91508082526020830160208301858383011115610b8e57600080fd5b610b99838284611182565b50505092915050565b600081359050610bb1816111e1565b92915050565b600060208284031215610bc957600080fd5b600082013567ffffffffffffffff811115610be357600080fd5b610bef84828501610b4e565b91505092915050565b600060208284031215610c0a57600080fd5b6000610c1884828501610ba2565b91505092915050565b60008060008060808587031215610c3757600080fd5b6000610c4587828801610ba2565b945050602085013567ffffffffffffffff811115610c6257600080fd5b610c6e87828801610b4e565b935050604085013567ffffffffffffffff811115610c8b57600080fd5b610c9787828801610b4e565b925050606085013567ffffffffffffffff811115610cb457600080fd5b610cc087828801610b4e565b91505092959194509250565b6000610cd88383610dcb565b905092915050565b6000610cec8383610efc565b60208301905092915050565b6000610d03826110ee565b610d0d8185611129565b935083602082028501610d1f856110b9565b8060005b85811015610d5b5784840389528151610d3c8582610ccc565b9450610d478361110f565b925060208a01995050600181019050610d23565b50829750879550505050505092915050565b6000610d78826110f9565b610d82818561113a565b9350610d8d836110c9565b8060005b83811015610dbe578151610da58882610ce0565b9750610db08361111c565b925050600181019050610d91565b5085935050505092915050565b6000610dd682611104565b610de0818561114b565b9350610df0818560208601611191565b610df9816111d0565b840191505092915050565b6000610e0f82611104565b610e19818561115c565b9350610e29818560208601611191565b610e32816111d0565b840191505092915050565b6000610e4882611104565b610e52818561116d565b9350610e62818560208601611191565b80840191505092915050565b600081546001811660008114610e8b5760018114610eb057610ef4565b607f6002830416610e9c818761116d565b955060ff1983168652808601935050610ef4565b60028204610ebe818761116d565b9550610ec9856110d9565b60005b82811015610eeb57815481890152600182019150602081019050610ecc565b82880195505050505b505092915050565b610f0581611178565b82525050565b610f1481611178565b82525050565b610f2b610f2682611178565b6111c4565b82525050565b6000610f3d8284610e3d565b915081905092915050565b6000610f548284610e6e565b915081905092915050565b6000610f6b8284610f1a565b60208201915081905092915050565b600060a0820190508181036000830152610f948188610d6d565b90508181036020830152610fa88187610cf8565b90508181036040830152610fbc8186610cf8565b90508181036060830152610fd08185610d6d565b90508181036080830152610fe48184610cf8565b90509695505050505050565b600060a0820190506110056000830188610f0b565b81810360208301526110178187610e04565b9050818103604083015261102b8186610e04565b905061103a6060830185610f0b565b818103608083015261104c8184610e04565b90509695505050505050565b6000604051905081810181811067ffffffffffffffff8211171561107f5761107e6111ce565b5b8060405250919050565b600067ffffffffffffffff8211156110a4576110a36111ce565b5b601f19601f8301169050602081019050919050565b6000819050602082019050919050565b6000819050602082019050919050565b60008190508160005260206000209050919050565b600081519050919050565b600081519050919050565b600081519050919050565b6000602082019050919050565b6000602082019050919050565b600082825260208201905092915050565b600082825260208201905092915050565b600082825260208201905092915050565b600082825260208201905092915050565b600081905092915050565b6000819050919050565b82818337600083830152505050565b60005b838110156111af578082015181840152602081019050611194565b838111156111be576000848401525b50505050565b6000819050919050565bfe5b6000601f19601f8301169050919050565b6111ea81611178565b81146111f557600080fd5b5056fea2646970667358221220ffe1a4b3933ba56eae21c89fb1755e4127c75e976ac5f7017b2fc6dc1b01378464736f6c63430007040033",
  "immutableReferences": {},
  "source": "// SPDX-License-Identifier: MIT\r\npragma solidity ^0.7.4;\r\npragma experimental ABIEncoderV2;\r\n\r\ncontract Election{\r\n        struct Candidate{\r\n            uint candidateID;\r\n            string Name;\r\n            string Email;\r\n            uint VoteCount;\r\n            string ElectionId;\r\n        }\r\n        \r\n        \r\n        Candidate[] public candidates;\r\n        \r\n         event getlist(uint[] candidateID, string[] name, string[] email, uint[] votes, string[] electionid);\r\n        \r\n        function addCandidates(uint _cid, string memory _name, string memory _mail, string memory _eid )public{\r\n            candidates.push(Candidate(_cid, _name, _mail,0, _eid));\r\n        }\r\n        \r\n        \r\n        \r\n        function getCandidate(string memory _id) payable public returns(uint[] memory, string[]memory, string[] memory, uint[] memory, string[] memory){\r\n            uint count=0;\r\n            \r\n            for(uint i=0; i<candidates.length; i++){\r\n              if((keccak256(abi.encodePacked((  candidates[i].ElectionId  ))) == keccak256(abi.encodePacked(( _id ))))){\r\n                  count++;\r\n              }\r\n          }\r\n          \r\n               uint[] memory CandidateIdList= new uint[](count);\r\n            string[] memory  NameList= new string[](count);\r\n            string[] memory EmailList= new string[](count);\r\n            uint[] memory VoteCountList= new uint[](count);\r\n            string[] memory ElectionIdList=new string[](count);\r\n          \r\n          for(uint i=0; i<candidates.length; i++ ){\r\n              if((keccak256(abi.encodePacked((  candidates[i].ElectionId  ))) == keccak256(abi.encodePacked(( _id ))))){\r\n                  CandidateIdList[i]=candidates[i].candidateID;\r\n                  NameList[i]=candidates[i].Name;\r\n                  EmailList[i]=candidates[i].Email;\r\n                  VoteCountList[i]=candidates[i].VoteCount;\r\n                  ElectionIdList[i]=candidates[i].ElectionId;\r\n              }\r\n          }\r\n           emit getlist(CandidateIdList, NameList, EmailList, VoteCountList, ElectionIdList);\r\n          return (CandidateIdList, NameList, EmailList, VoteCountList, ElectionIdList);\r\n        }\r\n        \r\n        \r\n        function vote(uint _id) public{\r\n            for(uint i=0; i< candidates.length; i++){\r\n                 if((keccak256(abi.encodePacked((  candidates[i].candidateID  ))) == keccak256(abi.encodePacked(( _id ))))){\r\n                     candidates[i].VoteCount= candidates[i].VoteCount+1;\r\n                 }\r\n            }\r\n        }\r\n      \r\n}",
  "sourcePath": "C:/Users/DELL/Desktop/ProjectVoting/client/contracts/election.sol",
  "compiler": {
    "name": "solc",
    "version": "0.7.4+commit.3f05b770.Emscripten.clang"
  },
  "schemaVersion": "3.3.2",
  "updatedAt": "2021-01-14T07:05:54.291Z",
  "networkType": "ethereum",
  "devdoc": {
    "kind": "dev",
    "methods": {},
    "version": 1
  },
  "userdoc": {
    "kind": "user",
    "methods": {},
    "version": 1
  }
}